{
  "_format": "hh-sol-artifact-1",
  "contractName": "ClawSP500Settlement",
  "sourceName": "contracts/ClawSP500Settlement.sol",
  "abi": [
    {
      "inputs": [
        {
          "internalType": "address",
          "name": "_usdc",
          "type": "address"
        }
      ],
      "stateMutability": "nonpayable",
      "type": "constructor"
    },
    {
      "anonymous": false,
      "inputs": [
        {
          "indexed": true,
          "internalType": "address",
          "name": "agent",
          "type": "address"
        },
        {
          "indexed": false,
          "internalType": "string",
          "name": "name",
          "type": "string"
        },
        {
          "indexed": false,
          "internalType": "uint256",
          "name": "timestamp",
          "type": "uint256"
        }
      ],
      "name": "AgentRegistered",
      "type": "event"
    },
    {
      "anonymous": false,
      "inputs": [
        {
          "indexed": false,
          "internalType": "bool",
          "name": "marketOpen",
          "type": "bool"
        },
        {
          "indexed": false,
          "internalType": "uint256",
          "name": "timestamp",
          "type": "uint256"
        }
      ],
      "name": "CircuitBreaker",
      "type": "event"
    },
    {
      "anonymous": false,
      "inputs": [
        {
          "indexed": true,
          "internalType": "address",
          "name": "agent",
          "type": "address"
        },
        {
          "indexed": false,
          "internalType": "uint256",
          "name": "amount",
          "type": "uint256"
        }
      ],
      "name": "Deposited",
      "type": "event"
    },
    {
      "anonymous": false,
      "inputs": [
        {
          "indexed": false,
          "internalType": "string",
          "name": "ticker",
          "type": "string"
        },
        {
          "indexed": false,
          "internalType": "uint256",
          "name": "totalAmount",
          "type": "uint256"
        },
        {
          "indexed": false,
          "internalType": "uint256",
          "name": "recipients",
          "type": "uint256"
        }
      ],
      "name": "DividendPaid",
      "type": "event"
    },
    {
      "anonymous": false,
      "inputs": [
        {
          "indexed": true,
          "internalType": "address",
          "name": "agent",
          "type": "address"
        },
        {
          "indexed": false,
          "internalType": "uint256",
          "name": "positionId",
          "type": "uint256"
        },
        {
          "indexed": false,
          "internalType": "int256",
          "name": "pnl",
          "type": "int256"
        }
      ],
      "name": "FuturesClosed",
      "type": "event"
    },
    {
      "anonymous": false,
      "inputs": [
        {
          "indexed": true,
          "internalType": "address",
          "name": "agent",
          "type": "address"
        },
        {
          "indexed": false,
          "internalType": "uint256",
          "name": "positionId",
          "type": "uint256"
        },
        {
          "indexed": false,
          "internalType": "string",
          "name": "contractId",
          "type": "string"
        },
        {
          "indexed": false,
          "internalType": "bool",
          "name": "isLong",
          "type": "bool"
        },
        {
          "indexed": false,
          "internalType": "uint256",
          "name": "size",
          "type": "uint256"
        },
        {
          "indexed": false,
          "internalType": "uint256",
          "name": "leverage",
          "type": "uint256"
        }
      ],
      "name": "FuturesOpened",
      "type": "event"
    },
    {
      "anonymous": false,
      "inputs": [
        {
          "indexed": true,
          "internalType": "address",
          "name": "agent",
          "type": "address"
        },
        {
          "indexed": false,
          "internalType": "uint256",
          "name": "amount",
          "type": "uint256"
        }
      ],
      "name": "MarginLocked",
      "type": "event"
    },
    {
      "anonymous": false,
      "inputs": [
        {
          "indexed": true,
          "internalType": "address",
          "name": "agent",
          "type": "address"
        },
        {
          "indexed": false,
          "internalType": "uint256",
          "name": "amount",
          "type": "uint256"
        }
      ],
      "name": "MarginReleased",
      "type": "event"
    },
    {
      "anonymous": false,
      "inputs": [
        {
          "indexed": true,
          "internalType": "uint256",
          "name": "tradeId",
          "type": "uint256"
        },
        {
          "indexed": false,
          "internalType": "address",
          "name": "buyer",
          "type": "address"
        },
        {
          "indexed": false,
          "internalType": "address",
          "name": "seller",
          "type": "address"
        },
        {
          "indexed": false,
          "internalType": "string",
          "name": "ticker",
          "type": "string"
        },
        {
          "indexed": false,
          "internalType": "uint256",
          "name": "quantity",
          "type": "uint256"
        },
        {
          "indexed": false,
          "internalType": "uint256",
          "name": "price",
          "type": "uint256"
        }
      ],
      "name": "TradeSettled",
      "type": "event"
    },
    {
      "anonymous": false,
      "inputs": [
        {
          "indexed": true,
          "internalType": "address",
          "name": "agent",
          "type": "address"
        },
        {
          "indexed": false,
          "internalType": "uint256",
          "name": "amount",
          "type": "uint256"
        }
      ],
      "name": "Withdrawn",
      "type": "event"
    },
    {
      "inputs": [
        {
          "internalType": "address",
          "name": "",
          "type": "address"
        },
        {
          "internalType": "uint256",
          "name": "",
          "type": "uint256"
        }
      ],
      "name": "agentFutures",
      "outputs": [
        {
          "internalType": "uint256",
          "name": "",
          "type": "uint256"
        }
      ],
      "stateMutability": "view",
      "type": "function"
    },
    {
      "inputs": [
        {
          "internalType": "uint256",
          "name": "",
          "type": "uint256"
        }
      ],
      "name": "agentList",
      "outputs": [
        {
          "internalType": "address",
          "name": "",
          "type": "address"
        }
      ],
      "stateMutability": "view",
      "type": "function"
    },
    {
      "inputs": [
        {
          "internalType": "address",
          "name": "",
          "type": "address"
        }
      ],
      "name": "agents",
      "outputs": [
        {
          "internalType": "string",
          "name": "name",
          "type": "string"
        },
        {
          "internalType": "uint256",
          "name": "balance",
          "type": "uint256"
        },
        {
          "internalType": "uint256",
          "name": "lockedMargin",
          "type": "uint256"
        },
        {
          "internalType": "uint256",
          "name": "totalTraded",
          "type": "uint256"
        },
        {
          "internalType": "uint256",
          "name": "totalPnl",
          "type": "uint256"
        },
        {
          "internalType": "uint256",
          "name": "tradeCount",
          "type": "uint256"
        },
        {
          "internalType": "uint256",
          "name": "registeredAt",
          "type": "uint256"
        },
        {
          "internalType": "bool",
          "name": "active",
          "type": "bool"
        }
      ],
      "stateMutability": "view",
      "type": "function"
    },
    {
      "inputs": [
        {
          "internalType": "uint256",
          "name": "positionId",
          "type": "uint256"
        },
        {
          "internalType": "uint256",
          "name": "exitPrice",
          "type": "uint256"
        }
      ],
      "name": "closeFutures",
      "outputs": [],
      "stateMutability": "nonpayable",
      "type": "function"
    },
    {
      "inputs": [
        {
          "internalType": "uint256",
          "name": "amount",
          "type": "uint256"
        }
      ],
      "name": "deposit",
      "outputs": [],
      "stateMutability": "nonpayable",
      "type": "function"
    },
    {
      "inputs": [
        {
          "internalType": "string",
          "name": "ticker",
          "type": "string"
        },
        {
          "internalType": "uint256",
          "name": "totalAmount",
          "type": "uint256"
        },
        {
          "internalType": "address[]",
          "name": "holders",
          "type": "address[]"
        },
        {
          "internalType": "uint256[]",
          "name": "shares",
          "type": "uint256[]"
        },
        {
          "internalType": "uint256",
          "name": "totalShares",
          "type": "uint256"
        }
      ],
      "name": "distributeDividend",
      "outputs": [],
      "stateMutability": "nonpayable",
      "type": "function"
    },
    {
      "inputs": [
        {
          "internalType": "uint256",
          "name": "",
          "type": "uint256"
        }
      ],
      "name": "dividends",
      "outputs": [
        {
          "internalType": "string",
          "name": "ticker",
          "type": "string"
        },
        {
          "internalType": "uint256",
          "name": "totalAmount",
          "type": "uint256"
        },
        {
          "internalType": "uint256",
          "name": "perShareAmount",
          "type": "uint256"
        },
        {
          "internalType": "uint256",
          "name": "timestamp",
          "type": "uint256"
        },
        {
          "internalType": "uint256",
          "name": "recipients",
          "type": "uint256"
        }
      ],
      "stateMutability": "view",
      "type": "function"
    },
    {
      "inputs": [
        {
          "internalType": "uint256",
          "name": "",
          "type": "uint256"
        }
      ],
      "name": "futuresPositions",
      "outputs": [
        {
          "internalType": "address",
          "name": "agent",
          "type": "address"
        },
        {
          "internalType": "string",
          "name": "contractId",
          "type": "string"
        },
        {
          "internalType": "bool",
          "name": "isLong",
          "type": "bool"
        },
        {
          "internalType": "uint256",
          "name": "size",
          "type": "uint256"
        },
        {
          "internalType": "uint256",
          "name": "entryPrice",
          "type": "uint256"
        },
        {
          "internalType": "uint256",
          "name": "margin",
          "type": "uint256"
        },
        {
          "internalType": "uint256",
          "name": "leverage",
          "type": "uint256"
        },
        {
          "internalType": "uint256",
          "name": "openedAt",
          "type": "uint256"
        },
        {
          "internalType": "bool",
          "name": "active",
          "type": "bool"
        }
      ],
      "stateMutability": "view",
      "type": "function"
    },
    {
      "inputs": [],
      "name": "getAgentCount",
      "outputs": [
        {
          "internalType": "uint256",
          "name": "",
          "type": "uint256"
        }
      ],
      "stateMutability": "view",
      "type": "function"
    },
    {
      "inputs": [
        {
          "internalType": "address",
          "name": "agent",
          "type": "address"
        }
      ],
      "name": "getAgentInfo",
      "outputs": [
        {
          "internalType": "string",
          "name": "name",
          "type": "string"
        },
        {
          "internalType": "uint256",
          "name": "balance",
          "type": "uint256"
        },
        {
          "internalType": "uint256",
          "name": "lockedMargin",
          "type": "uint256"
        },
        {
          "internalType": "uint256",
          "name": "totalTraded",
          "type": "uint256"
        },
        {
          "internalType": "uint256",
          "name": "tradeCount",
          "type": "uint256"
        },
        {
          "internalType": "bool",
          "name": "active",
          "type": "bool"
        }
      ],
      "stateMutability": "view",
      "type": "function"
    },
    {
      "inputs": [],
      "name": "getDividendCount",
      "outputs": [
        {
          "internalType": "uint256",
          "name": "",
          "type": "uint256"
        }
      ],
      "stateMutability": "view",
      "type": "function"
    },
    {
      "inputs": [],
      "name": "getExchangeStats",
      "outputs": [
        {
          "internalType": "uint256",
          "name": "_totalDeposited",
          "type": "uint256"
        },
        {
          "internalType": "uint256",
          "name": "_totalSettled",
          "type": "uint256"
        },
        {
          "internalType": "uint256",
          "name": "_totalTrades",
          "type": "uint256"
        },
        {
          "internalType": "uint256",
          "name": "_totalDividendsPaid",
          "type": "uint256"
        },
        {
          "internalType": "uint256",
          "name": "_agentCount",
          "type": "uint256"
        },
        {
          "internalType": "bool",
          "name": "_marketOpen",
          "type": "bool"
        }
      ],
      "stateMutability": "view",
      "type": "function"
    },
    {
      "inputs": [],
      "name": "getFuturesCount",
      "outputs": [
        {
          "internalType": "uint256",
          "name": "",
          "type": "uint256"
        }
      ],
      "stateMutability": "view",
      "type": "function"
    },
    {
      "inputs": [
        {
          "internalType": "address",
          "name": "agent",
          "type": "address"
        },
        {
          "internalType": "string",
          "name": "ticker",
          "type": "string"
        }
      ],
      "name": "getHoldings",
      "outputs": [
        {
          "internalType": "uint256",
          "name": "",
          "type": "uint256"
        }
      ],
      "stateMutability": "view",
      "type": "function"
    },
    {
      "inputs": [
        {
          "internalType": "uint256",
          "name": "id",
          "type": "uint256"
        }
      ],
      "name": "getTrade",
      "outputs": [
        {
          "components": [
            {
              "internalType": "uint256",
              "name": "id",
              "type": "uint256"
            },
            {
              "internalType": "address",
              "name": "buyer",
              "type": "address"
            },
            {
              "internalType": "address",
              "name": "seller",
              "type": "address"
            },
            {
              "internalType": "string",
              "name": "ticker",
              "type": "string"
            },
            {
              "internalType": "uint256",
              "name": "quantity",
              "type": "uint256"
            },
            {
              "internalType": "uint256",
              "name": "pricePerShare",
              "type": "uint256"
            },
            {
              "internalType": "uint256",
              "name": "totalAmount",
              "type": "uint256"
            },
            {
              "internalType": "uint256",
              "name": "timestamp",
              "type": "uint256"
            },
            {
              "internalType": "enum ClawSP500Settlement.TradeType",
              "name": "tradeType",
              "type": "uint8"
            }
          ],
          "internalType": "struct ClawSP500Settlement.Trade",
          "name": "",
          "type": "tuple"
        }
      ],
      "stateMutability": "view",
      "type": "function"
    },
    {
      "inputs": [],
      "name": "getTradeCount",
      "outputs": [
        {
          "internalType": "uint256",
          "name": "",
          "type": "uint256"
        }
      ],
      "stateMutability": "view",
      "type": "function"
    },
    {
      "inputs": [
        {
          "internalType": "address",
          "name": "",
          "type": "address"
        },
        {
          "internalType": "string",
          "name": "",
          "type": "string"
        }
      ],
      "name": "holdings",
      "outputs": [
        {
          "internalType": "uint256",
          "name": "",
          "type": "uint256"
        }
      ],
      "stateMutability": "view",
      "type": "function"
    },
    {
      "inputs": [],
      "name": "marketOpen",
      "outputs": [
        {
          "internalType": "bool",
          "name": "",
          "type": "bool"
        }
      ],
      "stateMutability": "view",
      "type": "function"
    },
    {
      "inputs": [
        {
          "internalType": "address",
          "name": "agent",
          "type": "address"
        },
        {
          "internalType": "string",
          "name": "ticker",
          "type": "string"
        },
        {
          "internalType": "uint256",
          "name": "quantity",
          "type": "uint256"
        }
      ],
      "name": "mintShares",
      "outputs": [],
      "stateMutability": "nonpayable",
      "type": "function"
    },
    {
      "inputs": [
        {
          "internalType": "string",
          "name": "contractId",
          "type": "string"
        },
        {
          "internalType": "bool",
          "name": "isLong",
          "type": "bool"
        },
        {
          "internalType": "uint256",
          "name": "size",
          "type": "uint256"
        },
        {
          "internalType": "uint256",
          "name": "entryPrice",
          "type": "uint256"
        },
        {
          "internalType": "uint256",
          "name": "leverage",
          "type": "uint256"
        }
      ],
      "name": "openFutures",
      "outputs": [],
      "stateMutability": "nonpayable",
      "type": "function"
    },
    {
      "inputs": [],
      "name": "owner",
      "outputs": [
        {
          "internalType": "address",
          "name": "",
          "type": "address"
        }
      ],
      "stateMutability": "view",
      "type": "function"
    },
    {
      "inputs": [
        {
          "internalType": "string",
          "name": "name",
          "type": "string"
        }
      ],
      "name": "registerAgent",
      "outputs": [],
      "stateMutability": "nonpayable",
      "type": "function"
    },
    {
      "inputs": [
        {
          "internalType": "address",
          "name": "buyer",
          "type": "address"
        },
        {
          "internalType": "address",
          "name": "seller",
          "type": "address"
        },
        {
          "internalType": "string",
          "name": "ticker",
          "type": "string"
        },
        {
          "internalType": "uint256",
          "name": "quantity",
          "type": "uint256"
        },
        {
          "internalType": "uint256",
          "name": "pricePerShare",
          "type": "uint256"
        }
      ],
      "name": "settleTrade",
      "outputs": [],
      "stateMutability": "nonpayable",
      "type": "function"
    },
    {
      "inputs": [],
      "name": "toggleMarket",
      "outputs": [],
      "stateMutability": "nonpayable",
      "type": "function"
    },
    {
      "inputs": [],
      "name": "totalDeposited",
      "outputs": [
        {
          "internalType": "uint256",
          "name": "",
          "type": "uint256"
        }
      ],
      "stateMutability": "view",
      "type": "function"
    },
    {
      "inputs": [],
      "name": "totalDividendsPaid",
      "outputs": [
        {
          "internalType": "uint256",
          "name": "",
          "type": "uint256"
        }
      ],
      "stateMutability": "view",
      "type": "function"
    },
    {
      "inputs": [],
      "name": "totalSettled",
      "outputs": [
        {
          "internalType": "uint256",
          "name": "",
          "type": "uint256"
        }
      ],
      "stateMutability": "view",
      "type": "function"
    },
    {
      "inputs": [],
      "name": "totalTrades",
      "outputs": [
        {
          "internalType": "uint256",
          "name": "",
          "type": "uint256"
        }
      ],
      "stateMutability": "view",
      "type": "function"
    },
    {
      "inputs": [],
      "name": "tradeCounter",
      "outputs": [
        {
          "internalType": "uint256",
          "name": "",
          "type": "uint256"
        }
      ],
      "stateMutability": "view",
      "type": "function"
    },
    {
      "inputs": [
        {
          "internalType": "uint256",
          "name": "",
          "type": "uint256"
        }
      ],
      "name": "trades",
      "outputs": [
        {
          "internalType": "uint256",
          "name": "id",
          "type": "uint256"
        },
        {
          "internalType": "address",
          "name": "buyer",
          "type": "address"
        },
        {
          "internalType": "address",
          "name": "seller",
          "type": "address"
        },
        {
          "internalType": "string",
          "name": "ticker",
          "type": "string"
        },
        {
          "internalType": "uint256",
          "name": "quantity",
          "type": "uint256"
        },
        {
          "internalType": "uint256",
          "name": "pricePerShare",
          "type": "uint256"
        },
        {
          "internalType": "uint256",
          "name": "totalAmount",
          "type": "uint256"
        },
        {
          "internalType": "uint256",
          "name": "timestamp",
          "type": "uint256"
        },
        {
          "internalType": "enum ClawSP500Settlement.TradeType",
          "name": "tradeType",
          "type": "uint8"
        }
      ],
      "stateMutability": "view",
      "type": "function"
    },
    {
      "inputs": [],
      "name": "usdc",
      "outputs": [
        {
          "internalType": "contract IERC20",
          "name": "",
          "type": "address"
        }
      ],
      "stateMutability": "view",
      "type": "function"
    },
    {
      "inputs": [
        {
          "internalType": "uint256",
          "name": "amount",
          "type": "uint256"
        }
      ],
      "name": "withdraw",
      "outputs": [],
      "stateMutability": "nonpayable",
      "type": "function"
    }
  ],
  "bytecode": "0x60a06040523480156200001157600080fd5b5060405162002dd738038062002dd7833981016040819052620000349162000067565b6001600160a01b03166080526000805460ff60a01b1933166001600160a81b031990911617600160a01b17905562000099565b6000602082840312156200007a57600080fd5b81516001600160a01b03811681146200009257600080fd5b9392505050565b608051612d14620000c3600039600081816102e901528181610c180152611bcd0152612d146000f3fe608060405234801561001057600080fd5b50600436106101f05760003560e01c80638c80c8e31161010f578063c9e18986116100a2578063eace4c9111610071578063eace4c91146104d0578063fbda834a146104d9578063fd66091e146104e1578063ff50abdc1461050857600080fd5b8063c9e18986146104a3578063dd81153e146104ac578063e275c997146104b4578063e83d72a2146104bd57600080fd5b8063b6b55f25116100de578063b6b55f25146103e5578063c60eb355146103f8578063c66bc04614610434578063c7309b691461045857600080fd5b80638c80c8e3146103ba5780638da5cb5b146103c257806391cab63e146103d5578063a3031b77146103dd57600080fd5b80633e413bee116101875780637888936a116101565780637888936a1461035d57806379f618f91461037057806380ddf4d314610383578063814b3fe01461039657600080fd5b80633e413bee146102e457806343be1d651461030b5780635e77579414610333578063660d15b51461035457600080fd5b80632db25e05116101c35780632db25e05146102735780632e1a7d4d146102935780632f80c54f146102a657806336f4f10b146102d157600080fd5b80630bc46096146101f5578063152052b01461020a5780631e6c598e146102385780632d2a958514610260575b600080fd5b6102086102033660046121fc565b610511565b005b61021d610218366004612256565b6105fa565b60405161022f969594939291906122be565b60405180910390f35b61024b6102463660046122fc565b6106f8565b60405161022f9998979695949392919061234d565b61020861026e3660046123b7565b6107ec565b6102866102813660046122fc565b6109b2565b60405161022f91906123f9565b6102086102a13660046122fc565b610b0c565b6102b96102b43660046122fc565b610d04565b6040516001600160a01b03909116815260200161022f565b6102086102df3660046124ad565b610d2e565b6102b97f000000000000000000000000000000000000000000000000000000000000000081565b61031e6103193660046122fc565b611084565b60405161022f9998979695949392919061251e565b61034661034136600461257e565b611179565b60405190815260200161022f565b61034660055481565b61020861036b3660046125ed565b6111aa565b61034661037e366004612698565b6114a0565b6102086103913660046126eb565b6114e0565b6103a96103a43660046122fc565b611a6d565b60405161022f95949392919061275e565b600954610346565b6000546102b9906001600160a01b031681565b600754610346565b600854610346565b6102086103f33660046122fc565b611b3b565b6103466104063660046127ab565b600c602090815260009283526040909220815180830184018051928152908401929093019190912091525481565b60005461044890600160a01b900460ff1681565b604051901515815260200161022f565b600154600254600354600454600754600054600160a01b900460ff166040805196875260208701959095529385019290925260608401526080830152151560a082015260c00161022f565b61034660045481565b610208611cf2565b61034660035481565b6102086104cb36600461286d565b611d80565b61034660025481565b600a54610346565b6104f46104ef366004612256565b61205c565b60405161022f98979695949392919061288f565b61034660015481565b6000546001600160a01b031633146105445760405162461bcd60e51b815260040161053b906128dc565b60405180910390fd5b6001600160a01b03841660009081526006602052604090206007015460ff166105a65760405162461bcd60e51b81526020600482015260146024820152731059d95b9d081b9bdd081c9959da5cdd195c995960621b604482015260640161053b565b6001600160a01b0384166000908152600c60205260409081902090518291906105d290869086906128ff565b908152602001604051809103902060008282546105ef9190612925565b909155505050505050565b606060008060008060008060066000896001600160a01b03166001600160a01b0316815260200190815260200160002090508060000181600101548260020154836003015484600501548560070160009054906101000a900460ff168580546106629061293e565b80601f016020809104026020016040519081016040528092919081815260200182805461068e9061293e565b80156106db5780601f106106b0576101008083540402835291602001916106db565b820191906000526020600020905b8154815290600101906020018083116106be57829003601f168201915b505050505095509650965096509650965096505091939550919395565b6008818154811061070857600080fd5b600091825260209091206009909102018054600182015460028301546003840180549395506001600160a01b039283169492909116926107479061293e565b80601f01602080910402602001604051908101604052809291908181526020018280546107739061293e565b80156107c05780601f10610795576101008083540402835291602001916107c0565b820191906000526020600020905b8154815290600101906020018083116107a357829003601f168201915b505050600484015460058501546006860154600787015460089097015495969295919450925060ff1689565b3360009081526006602052604090206007015460ff16156108445760405162461bcd60e51b8152602060048201526012602482015271105b1c9958591e481c9959da5cdd195c995960721b604482015260640161053b565b60405180610100016040528083838080601f016020809104026020016040519081016040528093929190818152602001838380828437600092018290525093855250505060208083018290526040808401839052606084018390526080840183905260a084018390524260c0850152600160e0909401939093523382526006905220815181906108d490826129c7565b5060208201516001828101919091556040808401516002840155606084015160038401556080840151600484015560a0840151600584015560c0840151600684015560e0909301516007928301805460ff1916911515919091179055815490810182556000919091527fa66cc928b5edb82af9bd49922954155ab7b0942694bea4ce44661d9a8736c688018054336001600160a01b0319909116811790915590517f023c5efe572c42192271951adb0e77f97d7fc84bc761d026189ac08617346824906109a690859085904290612ab0565b60405180910390a25050565b6109ba612129565b600882815481106109cd576109cd612ad4565b6000918252602091829020604080516101208101825260099093029091018054835260018101546001600160a01b0390811694840194909452600281015490931690820152600382018054919291606084019190610a2a9061293e565b80601f0160208091040260200160405190810160405280929190818152602001828054610a569061293e565b8015610aa35780601f10610a7857610100808354040283529160200191610aa3565b820191906000526020600020905b815481529060010190602001808311610a8657829003601f168201915b505050918352505060048201546020820152600582015460408201526006820154606082015260078201546080820152600882015460a09091019060ff166003811115610af257610af2612315565b6003811115610b0357610b03612315565b90525092915050565b3360009081526006602052604090206007015460ff16610b3e5760405162461bcd60e51b815260040161053b90612aea565b60008111610b7c5760405162461bcd60e51b815260206004820152600b60248201526a16995c9bc8185b5bdd5b9d60aa1b604482015260640161053b565b33600090815260066020526040902060010154811115610bd55760405162461bcd60e51b8152602060048201526014602482015273496e73756666696369656e742062616c616e636560601b604482015260640161053b565b3360009081526006602052604081206001018054839290610bf7908490612b12565b909155505060405163a9059cbb60e01b8152336004820152602481018290527f00000000000000000000000000000000000000000000000000000000000000006001600160a01b03169063a9059cbb906044016020604051808303816000875af1158015610c69573d6000803e3d6000fd5b505050506040513d601f19601f82011682018060405250810190610c8d9190612b25565b610ccb5760405162461bcd60e51b815260206004820152600f60248201526e151c985b9cd9995c8819985a5b1959608a1b604482015260640161053b565b60405181815233907f7084f5476618d8e60b11ef0d7d3f06914655adb8793e28ff7f018d4c76d505d5906020015b60405180910390a250565b60078181548110610d1457600080fd5b6000918252602090912001546001600160a01b0316905081565b3360009081526006602052604090206007015460ff16610d605760405162461bcd60e51b815260040161053b90612aea565b600054600160a01b900460ff16610da95760405162461bcd60e51b815260206004820152600d60248201526c13585c9ad95d0818db1bdcd959609a1b604482015260640161053b565b60018110158015610dbb5750600a8111155b610df85760405162461bcd60e51b815260206004820152600e60248201526d098caeccae4c2ceca40625a6260f60931b604482015260640161053b565b6000610e048285612b58565b33600090815260066020526040902060010154909150811115610e5f5760405162461bcd60e51b815260206004820152601360248201527224b739bab33334b1b4b2b73a1036b0b933b4b760691b604482015260640161053b565b3360009081526006602052604081206001018054839290610e81908490612b12565b90915550503360009081526006602052604081206002018054839290610ea8908490612925565b9091555050600a8054604080516101208101825233815281516020601f8c018190048102820181019093528a8152929392909180830191908c908c90819084018382808284376000920182905250938552505050891515602080840191909152604083018a9052606083018990526080830187905260a083018890524260c0840152600160e09093018390528454808401865594825290819020835160099095020180546001600160a01b0319166001600160a01b0390951694909417845582015191929190820190610f7b90826129c7565b5060408281015160028301805491151560ff19928316179055606084015160038401556080840151600484015560a0840151600584015560c0840151600684015560e0840151600784015561010090930151600890920180549215159290931691909117909155336000818152600b6020908152838220805460018101825590835291200183905590517f121eb437d6c5d2207e112a5c395413fc7dba66b01b3ef7c46ccee5800eab2ca19061103c9084908c908c908c908c908b90612b6c565b60405180910390a260405182815233907f7059f5d1cfe117fedd3ecf0cca85231af95572360556469dc0b576c1b6cbd660906020015b60405180910390a25050505050505050565b600a818154811061109457600080fd5b6000918252602090912060099091020180546001820180546001600160a01b039092169350906110c39061293e565b80601f01602080910402602001604051908101604052809291908181526020018280546110ef9061293e565b801561113c5780601f106111115761010080835404028352916020019161113c565b820191906000526020600020905b81548152906001019060200180831161111f57829003601f168201915b505050600284015460038501546004860154600587015460068801546007890154600890990154979860ff95861698949750929550909390921689565b600b602052816000526040600020818154811061119557600080fd5b90600052602060002001600091509150505481565b6000546001600160a01b031633146111d45760405162461bcd60e51b815260040161053b906128dc565b8382146112145760405162461bcd60e51b815260206004820152600e60248201526d082e4e4c2f240dad2e6dac2e8c6d60931b604482015260640161053b565b600081116112505760405162461bcd60e51b81526020600482015260096024820152684e6f2073686172657360b81b604482015260640161053b565b6000805b85811015611387576006600088888481811061127257611272612ad4565b90506020020160208101906112879190612256565b6001600160a01b0316815260208101919091526040016000206007015460ff1680156112cb575060008585838181106112c2576112c2612ad4565b90506020020135115b15611375576000838686848181106112e5576112e5612ad4565b905060200201358a6112f79190612ba4565b6113019190612b58565b905080600660008a8a8681811061131a5761131a612ad4565b905060200201602081019061132f9190612256565b6001600160a01b03166001600160a01b0316815260200190815260200160002060010160008282546113619190612925565b9091555061137190508184612925565b9250505b8061137f81612bbb565b915050611254565b506040805160c06020601f8c01819004028201810190925260a081018a81526009928291908d908d9081908501838280828437600092019190915250505090825250602081018490526040016113dd858b612b58565b8152426020808301919091526040909101889052825460018101845560009384529220815191926005020190819061141590826129c7565b5060208201518160010155604082015181600201556060820151816003015560808201518160040155505080600460008282546114529190612925565b90915550506040517f6c507af580fade897bc960743f5f00e6c02623a3ee05e525835cf581b57475039061148d908b908b9085908a90612bd4565b60405180910390a1505050505050505050565b6001600160a01b0383166000908152600c602052604080822090516114c890859085906128ff565b90815260200160405180910390205490509392505050565b6000546001600160a01b0316331461150a5760405162461bcd60e51b815260040161053b906128dc565b600054600160a01b900460ff166115535760405162461bcd60e51b815260206004820152600d60248201526c13585c9ad95d0818db1bdcd959609a1b604482015260640161053b565b6001600160a01b03861660009081526006602052604090206007015460ff16801561159957506001600160a01b03851660009081526006602052604090206007015460ff165b6115dd5760405162461bcd60e51b81526020600482015260156024820152741059d95b9d1cc81b9bdd081c9959da5cdd195c9959605a1b604482015260640161053b565b6000620f42406115ed8385612ba4565b6115f79190612b58565b6001600160a01b0388166000908152600660205260409020600101549091508111156116655760405162461bcd60e51b815260206004820152601a60248201527f427579657220696e73756666696369656e742062616c616e6365000000000000604482015260640161053b565b6001600160a01b0386166000908152600c602052604090819020905184919061169190889088906128ff565b90815260200160405180910390205410156116ee5760405162461bcd60e51b815260206004820152601a60248201527f53656c6c657220696e73756666696369656e7420736861726573000000000000604482015260640161053b565b6001600160a01b03871660009081526006602052604081206001018054839290611719908490612b12565b90915550506001600160a01b03861660009081526006602052604081206001018054839290611749908490612925565b90915550506001600160a01b0387166000908152600c602052604090819020905184919061177a90889088906128ff565b908152602001604051809103902060008282546117979190612925565b90915550506001600160a01b0386166000908152600c60205260409081902090518491906117c890889088906128ff565b908152602001604051809103902060008282546117e59190612b12565b909155505060058054600091826117fb83612bbb565b91905055905060086040518061012001604052808381526020018a6001600160a01b03168152602001896001600160a01b0316815260200188888080601f016020809104026020016040519081016040528093929190818152602001838380828437600092018290525093855250505060208201889052604082018790526060820186905242608083015260a090910152815460018181018455600093845260209384902083516009909302019182559282015192810180546001600160a01b039485166001600160a01b031991821617909155604083015160028301805491909516911617909255606081015190919060038201906118fb90826129c7565b506080820151600482015560a0820151600582015560c0820151600682015560e0820151600782015561010082015160088201805460ff1916600183600381111561194857611948612315565b021790555050506001600160a01b0388166000908152600660205260408120600301805484929061197a908490612925565b90915550506001600160a01b038716600090815260066020526040812060030180548492906119aa908490612925565b90915550506001600160a01b03881660009081526006602052604081206005018054916119d683612bbb565b90915550506001600160a01b0387166000908152600660205260408120600501805491611a0283612bbb565b91905055508160026000828254611a199190612925565b909155505060038054906000611a2e83612bbb565b9190505550807fe7ccff61ee4c72151fdf97e24797d75280378864d468f6851dde8df04079aa7989898989898960405161107296959493929190612bfb565b60098181548110611a7d57600080fd5b9060005260206000209060050201600091509050806000018054611aa09061293e565b80601f0160208091040260200160405190810160405280929190818152602001828054611acc9061293e565b8015611b195780601f10611aee57610100808354040283529160200191611b19565b820191906000526020600020905b815481529060010190602001808311611afc57829003601f168201915b5050505050908060010154908060020154908060030154908060040154905085565b3360009081526006602052604090206007015460ff16611b6d5760405162461bcd60e51b815260040161053b90612aea565b60008111611bab5760405162461bcd60e51b815260206004820152600b60248201526a16995c9bc8185b5bdd5b9d60aa1b604482015260640161053b565b6040516323b872dd60e01b8152336004820152306024820152604481018290527f00000000000000000000000000000000000000000000000000000000000000006001600160a01b0316906323b872dd906064016020604051808303816000875af1158015611c1e573d6000803e3d6000fd5b505050506040513d601f19601f82011682018060405250810190611c429190612b25565b611c805760405162461bcd60e51b815260206004820152600f60248201526e151c985b9cd9995c8819985a5b1959608a1b604482015260640161053b565b3360009081526006602052604081206001018054839290611ca2908490612925565b925050819055508060016000828254611cbb9190612925565b909155505060405181815233907f2da466a7b24304f47e87fa2e1e5a81b9831ce54fec19055ce277ca2f39ba42c490602001610cf9565b6000546001600160a01b03163314611d1c5760405162461bcd60e51b815260040161053b906128dc565b6000805460ff600160a01b808304821615810260ff60a01b199093169290921792839055604080519290930416151581524260208201527fc931beaadd86943165fb676385304fbd7c477638c103b905630f398dbc8886e5910160405180910390a1565b6000546001600160a01b03163314611daa5760405162461bcd60e51b815260040161053b906128dc565b6000600a8381548110611dbf57611dbf612ad4565b60009182526020909120600990910201600881015490915060ff16611e1c5760405162461bcd60e51b8152602060048201526013602482015272506f736974696f6e206e6f742061637469766560681b604482015260640161053b565b600281015460009060ff1615611e42576004820154611e3b9084612c3d565b9050611e55565b828260040154611e529190612c3d565b90505b60048201546003830154611e699083612c64565b611e739190612c94565b60088301805460ff19169055600583015483546001600160a01b0316600090815260066020526040812060020180549394509192611eb2908490612b12565b909155505060008112611f3757808260050154611ecf9190612925565b82546001600160a01b031660009081526006602052604081206001018054909190611efb908490612925565b909155505081546001600160a01b031660009081526006602052604081206004018054839290611f2c908490612925565b90915550611fc99050565b6000611f4282612cc2565b905082600501548110611f855782546001600160a01b0316600090815260066020526040812060010180548290611f7a908290612925565b90915550611fc79050565b808360050154611f959190612b12565b83546001600160a01b031660009081526006602052604081206001018054909190611fc1908490612925565b90915550505b505b815460408051868152602081018490526001600160a01b03909216917f0cac25ba09135cf9dc7d137bbd3f6ff8062c1560197017019b55a90184090887910160405180910390a2815460058301546040519081526001600160a01b03909116907f5e63d54af10545f0b2bd229512f244caefe863ad94dbbb7ad827432c84d762f59060200160405180910390a250505050565b6006602052600090815260409020805481906120779061293e565b80601f01602080910402602001604051908101604052809291908181526020018280546120a39061293e565b80156120f05780601f106120c5576101008083540402835291602001916120f0565b820191906000526020600020905b8154815290600101906020018083116120d357829003601f168201915b50505050600183015460028401546003850154600486015460058701546006880154600790980154969794969395509193909260ff1688565b6040518061012001604052806000815260200160006001600160a01b0316815260200160006001600160a01b0316815260200160608152602001600081526020016000815260200160008152602001600081526020016000600381111561219257612192612315565b905290565b80356001600160a01b03811681146121ae57600080fd5b919050565b60008083601f8401126121c557600080fd5b50813567ffffffffffffffff8111156121dd57600080fd5b6020830191508360208285010111156121f557600080fd5b9250929050565b6000806000806060858703121561221257600080fd5b61221b85612197565b9350602085013567ffffffffffffffff81111561223757600080fd5b612243878288016121b3565b9598909750949560400135949350505050565b60006020828403121561226857600080fd5b61227182612197565b9392505050565b6000815180845260005b8181101561229e57602081850181015186830182015201612282565b506000602082860101526020601f19601f83011685010191505092915050565b60c0815260006122d160c0830189612278565b602083019790975250604081019490945260608401929092526080830152151560a090910152919050565b60006020828403121561230e57600080fd5b5035919050565b634e487b7160e01b600052602160045260246000fd5b6004811061234957634e487b7160e01b600052602160045260246000fd5b9052565b8981526001600160a01b03898116602083015288166040820152610120606082018190526000906123808382018a612278565b9150508660808301528560a08301528460c08301528360e08301526123a961010083018461232b565b9a9950505050505050505050565b600080602083850312156123ca57600080fd5b823567ffffffffffffffff8111156123e157600080fd5b6123ed858286016121b3565b90969095509350505050565b60208152815160208201526000602083015161242060408401826001600160a01b03169052565b5060408301516001600160a01b0381166060840152506060830151610120806080850152612452610140850183612278565b9150608085015160a085015260a085015160c085015260c085015160e085015260e08501516101008181870152808701519150506124928286018261232b565b5090949350505050565b80151581146124aa57600080fd5b50565b60008060008060008060a087890312156124c657600080fd5b863567ffffffffffffffff8111156124dd57600080fd5b6124e989828a016121b3565b90975095505060208701356124fd8161249c565b95989497509495604081013595506060810135946080909101359350915050565b6001600160a01b038a168152610120602082018190526000906125438382018c612278565b991515604084015250506060810196909652608086019490945260a085019290925260c084015260e083015215156101009091015292915050565b6000806040838503121561259157600080fd5b61259a83612197565b946020939093013593505050565b60008083601f8401126125ba57600080fd5b50813567ffffffffffffffff8111156125d257600080fd5b6020830191508360208260051b85010111156121f557600080fd5b60008060008060008060008060a0898b03121561260957600080fd5b883567ffffffffffffffff8082111561262157600080fd5b61262d8c838d016121b3565b909a50985060208b0135975060408b013591508082111561264d57600080fd5b6126598c838d016125a8565b909750955060608b013591508082111561267257600080fd5b5061267f8b828c016125a8565b999c989b50969995989497949560800135949350505050565b6000806000604084860312156126ad57600080fd5b6126b684612197565b9250602084013567ffffffffffffffff8111156126d257600080fd5b6126de868287016121b3565b9497909650939450505050565b60008060008060008060a0878903121561270457600080fd5b61270d87612197565b955061271b60208801612197565b9450604087013567ffffffffffffffff81111561273757600080fd5b61274389828a016121b3565b979a9699509760608101359660809091013595509350505050565b60a08152600061277160a0830188612278565b90508560208301528460408301528360608301528260808301529695505050505050565b634e487b7160e01b600052604160045260246000fd5b600080604083850312156127be57600080fd5b6127c783612197565b9150602083013567ffffffffffffffff808211156127e457600080fd5b818501915085601f8301126127f857600080fd5b81358181111561280a5761280a612795565b604051601f8201601f19908116603f0116810190838211818310171561283257612832612795565b8160405282815288602084870101111561284b57600080fd5b8260208601602083013760006020848301015280955050505050509250929050565b6000806040838503121561288057600080fd5b50508035926020909101359150565b60006101008083526128a38184018c612278565b602084019a909a52505060408101969096526060860194909452608085019290925260a084015260c0830152151560e090910152919050565b6020808252600990820152682737ba1037bbb732b960b91b604082015260600190565b8183823760009101908152919050565b634e487b7160e01b600052601160045260246000fd5b808201808211156129385761293861290f565b92915050565b600181811c9082168061295257607f821691505b60208210810361297257634e487b7160e01b600052602260045260246000fd5b50919050565b601f8211156129c257600081815260208120601f850160051c8101602086101561299f5750805b601f850160051c820191505b818110156129be578281556001016129ab565b5050505b505050565b815167ffffffffffffffff8111156129e1576129e1612795565b6129f5816129ef845461293e565b84612978565b602080601f831160018114612a2a5760008415612a125750858301515b600019600386901b1c1916600185901b1785556129be565b600085815260208120601f198616915b82811015612a5957888601518255948401946001909101908401612a3a565b5085821015612a775787850151600019600388901b60f8161c191681555b5050505050600190811b01905550565b81835281816020850137506000828201602090810191909152601f909101601f19169091010190565b604081526000612ac4604083018587612a87565b9050826020830152949350505050565b634e487b7160e01b600052603260045260246000fd5b6020808252600e908201526d139bdd081c9959da5cdd195c995960921b604082015260600190565b818103818111156129385761293861290f565b600060208284031215612b3757600080fd5b81516122718161249c565b634e487b7160e01b600052601260045260246000fd5b600082612b6757612b67612b42565b500490565b86815260a060208201526000612b8660a083018789612a87565b94151560408301525060608101929092526080909101529392505050565b80820281158282048414176129385761293861290f565b600060018201612bcd57612bcd61290f565b5060010190565b606081526000612be8606083018688612a87565b6020830194909452506040015292915050565b6001600160a01b0387811682528616602082015260a060408201819052600090612c289083018688612a87565b60608301949094525060800152949350505050565b8181036000831280158383131683831282161715612c5d57612c5d61290f565b5092915050565b80820260008212600160ff1b84141615612c8057612c8061290f565b81810583148215176129385761293861290f565b600082612ca357612ca3612b42565b600160ff1b821460001984141615612cbd57612cbd61290f565b500590565b6000600160ff1b8201612cd757612cd761290f565b506000039056fea2646970667358221220c463b068bda1d26cf8d127e7b50db7da2cc7c55a413877d3a9520ecd766f30a164736f6c63430008140033",
  "linkReferences": {},
  "deployedLinkReferences": {}
}